S0190000536F6C617250616E656C436F6E74726F6C2E7372656339
S113000071C000008EC000008CC000008AC00000D7
S113001088C0000086C0000084C0000082C00000C8
S113002080C000007EC000007CC000007AC00000D8
S113003078C0000076C0000074C0000072C00000E8
S113004070C00000A7C400006CC000006AC00000BB
S113005068C0000066C0000064C0000062C0000008
S113006060C000005EC000005CC000005AC0000018
S113007058C00000AAC0000054C0000052C00000D4
S113008050C000004EC000004CC000004AC0000038
S113009048C0000046C0000044C0000042C0000048
S11300A040C000003EC0000083C500003AC000000C
S11300B038C0000036C0000034C0000032C0000068
S11300C030C000002EC000002CC000002AC0000078
S11300D028C0000026C0000024C0000022C0000088
S11300E020C0000011241FBECFEFD1E2DEBFCDBF80
S11300F000E00CBF13E0A0E0B2E0E6E1F0E100E0D4
S11301000BBF02C007900D92A031B107D9F723E0CD
S1130110A0E1B3E001C01D92A233B207E1F774D5A8
S113012078C76ECFE7E0F1E080818F77808383B377
S1130130816083BBECE7F0E0808187648083EBE738
S1130140F0E0808188608083808185608083EAE735
S1130150F0E080818F6A808384B3816084BB0895DA
S1130160EAE7F0E080818064808380917A0086FDF4
S1130170FCCF0895609178007091790080E090E060
S113018048D620E030E048E452E4D1D620E030E024
S113019040E85AE3CCD620E030E048EC52E4C7D63D
S11301A020E030E04AEF53E436D520E030E040E28E
S11301B051E496D560931A0370931B0380931C0338
S11301C090931D03F5D5CB0108951F920F920FB69E
S11301D00F9211240BB60F922F933F934F935F937B
S11301E06F937F938F939F93AF93BF93EF93FF93FB
S11301F0609178007091790080E090E00AD6609375
S11302001E0370931F038093200390932103FF9197
S1130210EF91BF91AF919F918F917F916F915F917A
S11302204F913F912F910F900BBE0F900FBE0F90E7
S11302301F90189587B1807C87B988B18F6388B97E
S1130240089546B1282F30E02150310981E090E033
S113025002C0880F991F2A95E2F7842311F481E0E4
S1130260089580E008958FEF81B982B908956130CF
S113027081F442B190E0019721E030E0B90102C07D
S1130280660F771F8A95E2F7CB018095842382B9A4
S1130290089561110EC042B190E0019721E030E071
S11302A0B90102C0660F771F8A95E2F7CB01842B50
S11302B082B90895CF93DF9340E03DC0842F90E04E
S11302C0FC01EE0FFF1FEE0FFF1FEE0FFF1FE81BD9
S11302D0F90BDF01AC50BD4FCD91DC9111975881E2
S11302E081E090E09C0116960C90169702C0220FB4
S11302F0331F0A94E2F7352F322B388314960D906E
S1130300BC91A02D3C91232B2C93E852FD4FA0814E
S1130310B1812C91068002C0880F991F0A94E2F7DC
S1130320982F909592239C930480F581E02D9081E1
S1130330892B80834F5F443008F2DF91CF91089579
S113034081508430D0F490E0FC01EE0FFF1FEE0FDB
S1130350FF1FEE0FFF1FE81BF90BE852FD4FA281B0
S1130360B3818C9190E0068002C0959587950A949C
S1130370E2F721E082278170089580E0089590E0FB
S113038001972091160330911703232BE9F0FC0108
S1130390EE0FFF1FEE0FFF1FEE0FFF1FE81BF90B01
S11303A0EC50FD4FA481B5812C9181E090E0068052
S11303B002C0880F991F0A94E2F7822B8C93109243
S11303C01703109216030895FC01EE0FFF1FEE0FA2
S11303D0FF1FEE0FFF1FE81BF90BEC50FD4FA4812C
S11303E0B5819C9141E050E09A01068002C0220F41
S11303F0331F0A94E2F7822F809589238C935093BC
S11304001703409316030895CF93DF93D1E014C0EC
S11304108D2FB5DFC1E00BC08C2F92DF882331F024
S11304208C2F90E09093230380932203CF5FC530F9
S113043098F38D2FA4DFDF5FD53050F38091220332
S1130440DF91CF9108950F931F93CF93DF93D1E062
S113045000E010E00EC08D2F92DFC1E005C08C2FAC
S11304606FDF81110D2FCF5FC530C8F38D2F87DF6C
S1130470DF5FD53080F3802FDF91CF911F910F91F3
S11304800895CF93DF93DFDF811107C083E690E007
S113049090932503809324031AC0D5DFC82FD0E09E
S11304A02197B2DFE82FF0E0CF010197FE01EE0FB4
S11304B0FF1FEE0FFF1FE80FF91FEE0FFF1FE050A5
S11304C0FE4F808191819093250380932403809132
S11304D02403DF91CF910895D4DF90E08A30910511
S11304E020F08336910509F044C08336910521F448
S11304F010921303109212032091120330911303EC
S1130500232BB9F583369105A1F120911003309185
S113051011032430310549F4909315038093140397
S1130520109211031092100315C0209114033091FE
S11305301503A901440F551F220F331F220F331F28
S1130540220F331F240F351F820F931F909315031F
S11305508093140381E090E090931303809312033B
S1130560809110039091110301969093110380934D
S113057010038091140390911503089510921503AC
S11305801092140310921103109210030895E1E8DD
S1130590F0E080818A60808310928500109284004C
S11305A08FE097E29093890080938800EFE6F0E073
S11305B0808182608083E1EAF0E080818C608083C6
S11305C081E19AE79093A9008093A800E2E7F0E024
S11305D08081826080837894089584B1876084B92F
S11305E080B38F6080BB85B1887F85B981B38F600C
S11305F081BB08950F931F93CF93DF93AC01EC015C
S1130600D695C795D695C795D695C7959E01A5EC61
S1130610B0E2F0D4FC01F295E295EF70EF27FF70A1
S1130620EF2728EE33E0E29FC001E39F900DF29F95
S1130630900D11249A01281B390B36952795369570
S11306402795ABE7B4E1D6D4EC01D695C7959A01CA
S11306503695279536952795CDD49C0136952795C3
S113066064E6629FC001639F900D11249A01281BC8
S1130670390BADECBCECBED48C01169507951695E0
S11306800795169507959A01B5D4969587959695ED
S11306908795969587959C01220F331F880F991F84
S11306A0880F991F880F991F820F931F9A01281B87
S11306B0390BC901209126023091270224303105DB
S11306C091F02330310539F02230310539F02130F1
S11306D0310539F008C0802F912F05C08C2F9D2F34
S11306E002C08E2F9F2FDF91CF911F910F910895FC
S11306F0CF93DF93CDB7DEB7C05CD1090FB6F894C2
S1130700DEBF0FBECDBF20EBE8E2F2E0DE01519682
S113071001900D922A95E1F7803127E29207B8F40F
S11307201FC0FC01E05BFF4FEE0FFF1F41E050E0F4
S11307304C0F5D1FE40FF51F20893189FC01EE0F7A
S1130740FF1FE40FF51F31832083019602C080E070
S113075090E0883091052CF381B3807F81BBA3C0E6
S113076049DF21B32F6021BB20E030E01CC0FC0135
S1130770EE0FFF1FEE0FFF1FEE0FFF1FE20FF31F21
S1130780EE0FFF1F61E070E06C0F7D1FE60FF71F97
S113079040895189F901EE0FFF1FE60FF71F5183BE
S11307A040832F5F3F4F283031050CF32091260200
S11307B0309127022130310501F5892B69F42F5F2F
S11307C03F4F309327022093260281E090E09093DC
S11307D027038093260367C081B38E7F81BB8091FA
S11307E02602909127020196909327028093260275
S11307F0109227031092260356C02230310501F5CA
S1130800892B69F48091260390912703019739F489
S11308102F5F3F4F309327022093260244C081B3B9
S11308208D7F81BB8091260290912702019690933F
S1130830270280932602109227031092260333C0C6
S11308402330310501F5892B69F4809126039091B9
S11308502703019739F42F5F3F4F309327022093EA
S1130860260221C081B38B7F81BB809126029091A7
S11308702702019690932702809326021092270361
S11308801092260310C02430310569F481B3877FA8
S113089081BB81E090E0909327028093260210921E
S11308A027031092260385B18E7F85B980E090E0FE
S11308B01BC0FC01EE0FFF1F21E030E02C0F3D1F99
S11308C0E20FF31F20813181232B21F425B12B7FEB
S11308D025B903C025B1246025B925B1226025B905
S11308E025B12D7F25B901968830910514F385B182
S11308F0816085B9C054DF4F0FB6F894DEBF0FBED8
S1130900CDBFDF91CF91089581E09BDC882399F0DE
S113091081E090E090932D0380932C0310922F0399
S113092010922E0310922102109220021092310391
S11309301092300323DE82E084DC882399F0109245
S11309402D0310922C0381E090E090932F03809369
S11309502E03109221021092200210923103109261
S113096030030CDE83E06DDC882399F010922D03B4
S113097010922C0310922F0310922E0381E090E02A
S1130980909321028093200210923103109230033D
S1130990F5CD08951F920F920FB60F9211240BB646
S11309A00F922F933F934F935F936F937F938F9304
S11309B09F93AF93BF93EF93FF93A6DF80912C0394
S11309C090912D03892B09F455C05BDD8A3030F0FA
S11309D08091300390913103019759F47DDD909318
S11309E02B0380932A0381E090E09093310380935A
S11309F0300347DD8F3001F580912A0390912B035A
S1130A009093250280932402B9DD10923103109251
S1130A10300320912402309125028091220290918A
S1130A2023028217930740F4309323022093220277
S1130A30909325028093240224DD8E3069F49EDD98
S1130A401092310310923003809124029091250278
S1130A5090932B0380932A03809130039091310368
S1130A60892B41F4809124029091250290932B03C9
S1130A7080932A0380912E0390912F03892B09F4EC
S1130A8055C0FFDC8A3030F08091300390913103FF
S1130A90019759F421DD90932B0380932A0381E07D
S1130AA090E09093310380933003EBDC8F3001F5B9
S1130AB080912A0390912B03909323028093220226
S1130AC05DDD1092310310923003209124023091A5
S1130AD0250280912202909123028217930740F409
S1130AE030932302209322029093250280932402C0
S1130AF0C8DC8E3069F442DD109231031092300369
S1130B00809122029091230290932B0380932A03D5
S1130B108091300390913103892B41F4809122021A
S1130B209091230290932B0380932A0380912002B7
S1130B3090912102892B41F08091280390912903FF
S1130B4090932B0380932A0380912A0390912B0383
S1130B50CFDD2091280330912903809122029091C6
S1130B6023028217930718F461E081E080DB20916F
S1130B70280330912903809124029091250228179B
S1130B80390718F460E081E072DBFF91EF91BF91C7
S1130B90AF919F918F917F916F915F914F913F9111
S1130BA02F910F900BBE0F900FBE0F901F901895B2
S1130BB01F920F920FB60F9211240BB60F922F9320
S1130BC03F934F935F936F937F938F939F93AF93D1
S1130BD0BF93EF93FF93C4DACDDA90932903809304
S1130BE02803FF91EF91BF91AF919F918F917F91D6
S1130BF06F915F914F913F912F910F900BBE0F908A
S1130C000FBE0F901F901895E8DC8CDAC0DC12DB65
S1130C1051DB29DBFFCF5058BB27AA270ED04DC18B
S1130C203ED130F043D120F031F49F3F11F41EF453
S1130C3033C10EF4E095E7FB29C1E92F4FD180F3CE
S1130C40BA17620773078407950718F071F49EF5C5
S1130C5067C10EF4E0950B2EBA2FA02D0B01B9013C
S1130C6090010C01CA01A0011124FF27591B99F01E
S1130C70593F50F4503E68F11A16F040A22F232F2A
S1130C80342F4427585FF3CF469537952795A7957A
S1130C90F0405395C9F77EF41F16BA0B620B730B21
S1130CA0840BBAF09150A1F0FF0FBB1F661F771F92
S1130CB0881FC2F70EC0BA0F621F731F841F48F447
S1130CC0879577956795B795F7959E3F08F0B3CFCD
S1130CD09395880F08F09927EE0F979587950895B7
S1130CE00CD0EBC0E3D040F0DAD030F021F45F3F19
S1130CF019F0CCC0511115C1CFC0F0D098F399238D
S1130D00C9F35523B1F3951B550BBB27AA276217CB
S1130D107307840738F09F5F5F4F220F331F441F10
S1130D20AA1FA9F333D00E2E3AF0E0E830D0915048
S1130D305040E695001CCAF729D0FE2F27D0660F35
S1130D40771F881FBB1F261737074807AB07B0E874
S1130D5009F0BB0B802DBF01FF2793585F4F2AF08A
S1130D609E3F510568F092C0DCC05F3FECF3983EB3
S1130D70DCF3869577956795B795F7959F5FC9F7E7
S1130D80880F911D9695879597F90895E1E0660F70
S1130D90771F881FBB1F621773078407BA0720F0E9
S1130DA0621B730B840BBA0BEE1F88F7E095089552
S1130DB004D06894B111B5C0089598D088F09F57B5
S1130DC090F0B92F9927B751A0F0D1F0660F771F93
S1130DD0881F991F1AF0BA95C9F712C0B13081F073
S1130DE09FD0B1E008959CC0672F782F8827B85F03
S1130DF039F0B93FCCF3869577956795B395D9F7D4
S1130E003EF490958095709561957F4F8F4F9F4FDD
S1130E100895E89409C097FB3EF4909580957095E9
S1130E2061957F4F8F4F9F4F9923A9F0F92F96E932
S1130E30BB279395F695879577956795B795F111A7
S1130E40F8CFFAF4BB0F11F460FF1BC06F5F7F4F44
S1130E508F4F9F4F16C0882311F096E911C0772356
S1130E6021F09EE8872F762F05C0662371F096E85F
S1130E70862F70E060E02AF09A95660F771F881F2E
S1130E80DAF7880F9695879597F9089597F99F67EC
S1130E9080E870E060E008959FEF80EC08950024FE
S1130EA00A941616170618060906089500240A94CB
S1130EB012161306140605060895092E0394000C51
S1130EC011F4882352F0BB0F40F4BF2B11F460FFE0
S1130ED004C06F5F7F4F8F4F9F4F089557FD905809
S1130EE0440F551F59F05F3F71F04795880F97FBEA
S1130EF0991F61F09F3F79F08795089512161306A4
S1130F001406551FF2CF4695F1DF08C016161706D2
S1130F101806991FF1CF8695710561050894089507
S1130F20E894BB2766277727CB0197F908950BD060
S1130F30C4CFB5DF28F0BADF18F0952309F0A6CFA7
S1130F40ABCF1124EECFCADFA0F3959FD1F3950F59
S1130F5050E0551F629FF001729FBB27F00DB11D39
S1130F60639FAA27F00DB11DAA1F649F6627B00DC9
S1130F70A11D661F829F2227B00DA11D621F739FB2
S1130F80B00DA11D621F839FA00D611D221F749FC0
S1130F903327A00D611D231F849F600D211D822F07
S1130FA0762F6A2F11249F5750408AF0E1F088234E
S1130FB04AF0EE0FFF1FBB1F661F771F881F91505B
S1130FC05040A9F79E3F510570F060CFAACF5F3F14
S1130FD0ECF3983EDCF3869577956795B795F7958E
S1130FE0E7959F5FC1F7FE2B880F911D9695879516
S1130FF097F90895A29FB001B39FC001A39F700DFC
S1131000811D1124911DB29F700D811D1124911D0C
S10910100895F894FFCFDF
S11310160100020003000A000400050006000B009C
S11310260700080009000C000E0000000F000D0068
S1131036010023001200010001000100000000006D
S11310460000000000000000010001000100010092
S11310560100000000000100010000000100000082
S11310660000010000000000010000000100010072
S11310760000000000000000010000000000010064
S11310860100000000000100010000000000010052
S11310960000000001000000010000000000000044
S11310A60000000001000000010001000100010031
S11310B60100000000000000010000000000000024
S11310C60000000000000000010000000000010014
S11310D60000000000000000010000000000000005
S11310E600000100010000002D002C002E00050167
S11310F6010001020103010100010201050A0109BF
S1131106010B0101240023002500072400230025E8
S11311160005240023002500042D002C002E0003C6
S9030000FC
